:060000000A128A110C280F
:10000800FE00030EF1000A08F2000A128A111428F1
:100018000A128A110F28F30183010A128A11432850
:100028000B1C17281828292883120313061A1D28C1
:100038001E2822280130F000700888070619252894
:1000480026282828013088020B10831203138C1DE0
:100058002E282F283C280A128A1187200A128A1172
:10006800F0007008F30083120313080893008C1142
:1000780072088A00710E8300FE0E7E0E09000A12B5
:100088008A1199200A128A110A128A1160200A120A
:100098008A110A128A11A0200A128A110A128A11D8
:1000A80091200A128A110A128A1174200A128A11DE
:1000B8005C280A128A110C28831603178801890103
:1000C8008316031385168715071687120615061655
:1000D80088018312031385018601870188010800BE
:1000E8008316031394131413831203139416141210
:1000F8001408F03904389400831603138C158312FE
:1001080003138C11080083160313141C8C288D28E4
:100118008728831203131308080083160313811317
:1001280014309500143096000800831603130F1737
:100138008F160F120F1408008B170B178B150B1047
:020148000800AD
:04400E00D420FF3F7C
:00000001FF
