:060000000A128A110C280F
:10000800FE00030EF1000A08F2000A128A11002EFF
:100018000A128A110F288313C230FD000530FE0032
:100028009030FF00A03084000A128A111A260A12A2
:100038008A116E30FD000630FE00A230FF006930E4
:1000480084000A128A111A260A128A11483084007A
:1000580069300A128A1193260A128A1183010A1238
:100068008A1136280A128A119B260A128A110A1244
:100078008A11EA250A128A110A128A117E260A12A0
:100088008A110A128A1129260A128A110A128A1159
:100098003B260A128A110A128A1117240A128A1197
:1000A8000A128A118D220A128A118312031306106A
:1000B800073083120313B7007C30B600B60B6228F2
:1000C800B70B6228000083120313560893000A1224
:1000D8008A1189260A128A1183120313B600360878
:1000E800E300073083120313B7007C30B600B60B69
:1000F8007B28B70B7B2800008312031306140730F4
:1001080083120313B7007C30B600B60B8928B70BEF
:100118008928000083120313861007308312031303
:10012800B7007C30B600B60B9728B70B97280000AD
:1001380083120313560893000A128A1189260A1299
:100148008A1183120313B6003608DD0007308312C4
:100158000313B7007C30B600B60BB028B70BB02835
:100168000000831203138614073083120313B700A9
:100178007C30B600B60BBE28B70BBE280000831231
:1001880003130611073083120313B7007C30B6003F
:10019800B60BCC28B70BCC280000831203135608E3
:1001A80093000A128A1189260A128A1183120313EC
:1001B800B6003608D700073083120313B7007C3027
:1001C800B600B60BE528B70BE52800008312031329
:1001D8000615073083120313B7007C30B600B60B40
:1001E800F328B70BF32800008312031363080A12DD
:1001F8008A113E250A128A11831203132908E50081
:100208002808E4006508A9006408A8006630B6005C
:100218003608AA006730B7003708AB006830B80066
:100228003808AC000A128A1160230A128A11831254
:1002380003135D08B600B7013608A8003708A900FF
:100248006030B8003808AA006130B9003908AB003E
:100258006230BA003A08AC000A128A1160230A1206
:100268008A11831203135708B600B7013608A8008D
:100278003708A9005A30B8003808AA005B30B9001E
:100288003908AB005C30BA003A08AC000A128A118F
:1002980060230A128A11F50101300A128A11B22567
:1002A8000A128A11831203136608303E0A128A1151
:1002B8005A260A128A11023083120313B60036082E
:1002C800F50001300A128A11B2250A128A11831226
:1002D80003136708303E0A128A115A260A128A1135
:1002E800033083120313B6003608F50001300A12F2
:1002F8008A11B2250A128A11831203136808303E44
:100308000A128A115A260A128A1106308312031316
:10031800B6003608F50001300A128A11B2250A1211
:100328008A11831203136008303E0A128A115A2672
:100338000A128A11073083120313B6003608F50033
:1003480001300A128A11B2250A128A118312031384
:100358006108303E0A128A115A260A128A11083098
:1003680083120313B6003608F50001300A128A1109
:10037800B2250A128A11831203136208303E0A1248
:100388008A115A260A128A110B3083120313B600F7
:100398003608F50001300A128A11B2250A128A11AC
:1003A800831203135A08303E0A128A115A260A1277
:1003B8008A110C3083120313B6003608F500013099
:1003C8000A128A11B2250A128A11831203135B08D2
:1003D800303E0A128A115A260A128A110D308312E7
:1003E8000313B6003608F50001300A128A11B22547
:1003F8000A128A11831203135C08303E0A128A110A
:100408005A260A128A113B3084000530FF008313F4
:100418008001840AFF0B0B2A831203136608303EFF
:10042800B6003608BB002E30B6003608BC00670898
:10043800303EB6003608BD006808303EB6003608C3
:10044800BE00BF010030C3000030C2000030C10050
:100458000030C0006008303EB6003608C0006108B1
:10046800303EB6003608C1006208303EB600360895
:10047800C200C3010030C7000030C6000030C5000C
:100488000030C4005A08303EB6003608C4005B0885
:10049800303EB6003608C5005C08303EB600360867
:1004A800C600C70102305502031C5B2A5C2A592882
:1004B80069300A128A11E1240A128A113B300A12A1
:1004C8008A11E1240A128A11B9300A128A11E12428
:1004D8000A128A1140300A128A11E1240A128A117A
:1004E800B0300A128A11E1240A128A1144300A1221
:1004F8008A11E1240A128A110D300A128A114D2636
:100508000A128A1183120313D50159280A128A1173
:100518000C2826308400A03083120313A20004089C
:10052800A3001030A4002208840083130008A5004B
:10053800A20A2308840025088000A30AA40B972A8E
:10054800F501F50A00300A128A11B2250A128A1139
:1005580026300A128A1111250A128A11F501F50AA4
:1005680001300A128A11B2250A128A112E300A1293
:100578008A115A260A128A11043083120313A20020
:100588002208F50001300A128A11B2250A128A11CE
:1005980056300A128A115A260A128A110E3083120C
:1005A8000313A2002208F50001300A128A11B225AD
:1005B8000A128A1127300A128A115A260A128A1137
:1005C8000F3083120313A2002208F50001300A122B
:1005D8008A11B2250A128A1143300A128A115A2640
:1005E8000A128A11080083120313A501A11FFD2A0C
:1005F800FE2A052BA009A109A00A0319A10AA50131
:10060800A50AA31F082B092B122BA209A309A20ACA
:100618000319A30A0130F9007908A506A601A70164
:10062800200821040319192B1A2B512BA401A40A01
:10063800282B01300310A00DA10DFF3E031D1E2B1A
:100648000130F9007908A407A11F2B2B2C2B1D2B97
:1006580001300310A60DA70DFF3E031D2D2B210809
:100668002302031D392B20082202031C3C2B3D2B9F
:10067800442B2008A2022108031CA303A30226146A
:1006880001300310A10CA00CFF3E031D452B0130C7
:10069800A402031D502B512B2C2B25080319552B75
:1006A800562B5B2BA609A709A60A0319A70A270830
:1006B800A1002608A00008006430F3000030F40010
:1006C800831203132908F6002808F5000A128A1174
:1006D80063240A128A11730883120313AD002A08CF
:1006E80084002D08831380006430F3000030F40088
:1006F8002908F6002808F5000A128A11A7240A1208
:100708008A11730883120313AD002D08B0000A3054
:10071800A0000030A1003008AD00AE012D08A200F5
:100728002E08A3000A128A11F7220A128A118312CC
:1007380003132008AF002B0884002F0883138000C0
:100748000A30F3000030F4003008AD00AE012D0887
:10075800F5002E08F6000A128A11BE230A128A1121
:10076800730883120313AF002C0884002F08831327
:1007780080000800F901F61FC22BC32BCA2BF5090C
:10078800F609F50A0319F60AF901F90AF41FCD2B3F
:10079800CE2BD32BF309F409F30A0319F40A7308CF
:1007A80074040319D82BD92B082CF801F80AE72B65
:1007B80001300310F30DF40DFF3E031DDD2B013056
:1007C800F7007708F807F41FEA2BEB2BDC2B7408EB
:1007D8007602031DF12B73087502031CF42BF52B0D
:1007E800FB2B7308F5027408031CF603F6020130AC
:1007F8000310F40CF30CFF3E031DFC2B0130F80230
:10080800031D072C082CEB2B790803190C2C0D2C35
:10081800122CF509F609F50A0319F60A7608F40008
:100828007508F30008008312031307108710850169
:100838001530F600C630F500F50B202CF60B202CF1
:10084800000030300A128A1166260A128A1107300F
:10085800F6007D30F500F50B2F2CF60B2F2C3030E1
:100868000A128A1166260A128A114230F500F50B1F
:100878003B2C000030300A128A1166260A128A11AF
:100888000630F6003030F500F50B482CF60B482CF6
:10089800000038300A128A1166260A128A110630B8
:1008A800F6003030F500F50B572CF60B572C0000EE
:1008B8000C300A128A1166260A128A110800F801F9
:1008C800F9017308740403196A2C6B2CA22CFA0121
:1008D800FA0A792C01300310F30DF40DFF3E031DC5
:1008E8006F2C0130F7007708FA07F41F7C2C7D2C59
:1008F8006E2C01300310F80DF90DFF3E031D7E2C00
:1009080074087602031D8A2C73087502031C8D2C4B
:100918008E2C952C7308F5027408031CF603F60256
:10092800781401300310F40CF30CFF3E031D962CD1
:100938000130FA02031DA12CA22C7D2C7908F400A9
:100948007808F3000800730874040319AC2CAD2C64
:10095800DC2CF801F80ABB2C01300310F30DF40D60
:10096800FF3E031DB12C0130F7007708F807F41F8C
:10097800BE2CBF2CB02C74087602031DC52C73083E
:100988007502031CC82CC92CCF2C7308F5027408F7
:10099800031CF603F60201300310F40CF30CFF3EBF
:1009A800031DD02C0130F802031DDB2CDC2CBF2CDE
:1009B8007608F4007508F300080083120313A200F8
:1009C800A001A101FE2C20082207F8007808840065
:1009D800831300089900C730F800F22CF80BF12CAB
:1009E800F52CF62C013083120313A0070318A10A73
:1009F8000030A10722080A128A11D1250A128A1189
:100A08007408831203132102031D0C2D730820029E
:100A1800031C0F2D102DE72C080083120313A000D0
:100A2800A101282D21082007F800780884008313E5
:100A380000080A128A115A260A128A110130F8008F
:100A4800780883120313A10720080A128A11D125F6
:100A58000A128A11831203132108F800F901740895
:100A68007902031D392D73087802031C3C2D3D2D96
:100A7800162D080083120313AE003330A000003097
:100A8800A1002E08AA00AB012A08F3002B08F400E5
:100A98006430F5000030F6000A128A116B250A123C
:100AA8008A11740883120313A3007308A2000A12A0
:100AB8008A11F7220A128A11831203132108AD0042
:100AC8002008AC002D08A9002C08A8000800F70190
:100AD800F801731C702D712D772D7508F707031811
:100AE800F80A7608F80701300310F50DF60DFF3EF9
:100AF800031D782D01300310F40CF30CFF3E031D89
:100B08007F2D73087404031D8A2D8B2D6D2D780895
:100B1800F4007708F3000800533431343A342034B1
:100B28002034533432343A3420342034203453348B
:100B380033343A3420340034203420342034203400
:100B4800533433343A3420340034203420342034BD
:100B58002034533432343A3420340034F8008030AE
:100B6800F6007608F9007808F60005300310F60D4F
:100B7800FF3E031DBA2D0310760DF7007708F80025
:100B8800790878047504F6007608F90079080A12DD
:100B98008A1166260A128A110800F7007708F500FC
:100BA8007508F600DB2D0130F5007508F6077608A4
:100BB800840083130008031DE22DE32DD72D770849
:100BC8007602F300F401F31BF403080083160317FD
:100BD800880189018316031385018601870187111E
:100BE80007168712071388018312031385018601EC
:100BF80087018801D6010800831203130C1C052EF7
:100C0800062E0F2E0130F0007008D5070B308F002C
:100C1800DC308E000C1072088A00710E8300FE0E04
:100C28007E0E09007E088A007F0882000A128A1157
:100C380016260A128A118000840A04087D06031900
:100C48000034FF0A0319FE0A1A2E831603139A01A9
:100C58006730990018121815831603178715831221
:100C68000313981783160313181398160800831292
:100C780003139016101690111015901010140B30C5
:100C88008F00DC308E000B17831603130C148B17A0
:100C98000800F4007408831203139900C730F300A6
:100CA800552EF30B542E582E592E0800F40083129B
:100CB80003130714740885000A128A1172260A128F
:100CC8008A110800F40083120313071074088500C2
:100CD8000A128A1172260A128A1108008312031353
:100CE8008714A630F300F30B772E0000831203134A
:100CF8008710080083160313941714138312031321
:100D080094161412F0309405080083160313141C6B
:100D18008E2E8F2E892E8312031313080800640069
:100D28008001840A0406031900340406942E8316ED
:100D380003130F178F160F120F1408005334313492
:060D48003A3420340034AF
:04400E00D420FF3F7C
:00000001FF
