:060000000A128A110C280F
:10000800FE00030EF2000A08F3000A128A11712892
:100018000A128A110F28F90183120313AC01AD01EA
:10002800AE01AF0183010A128A111A280A128A1135
:1000380053210A128A110A128A1116210A128A11E8
:100048000A128A114A210A128A110A128A112D21CA
:100058000A128A110A128A11FD200A128A118312C1
:1000680003139F183828392841281030F800F80B56
:100078003B280000831203139F142F08A3002E08A7
:10008800A2000A128A11D6200A128A1183120313B7
:100098002308AD002208AC0000302D0218300319E7
:1000A8002C020318582859285D28861386128615AD
:1000B800332800302D021C3003192C020318652840
:1000C80066286A28861386168611332886178612AC
:1000D800861133280A128A110C28831203130C1F65
:1000E8007628772893281E08F000F1017008AE00E2
:1000F8007108AF002E08F100F0017008AE00710819
:10010800AF002E08831603131E04F0008312031396
:100118002F08F1007008AE007108AF000C138C1D99
:1001280096289728A4280A128A1140210A128A11AF
:10013800F0007008F900831203132C0893008C1147
:1001480073088A00720E8300FE0E7E0E0900831269
:100158000313A001A101741CB228B328BB28760898
:1001680083120313A0070318A10A7708A107013017
:100178000310F60DF70DFF3E031DBC2801300310D8
:10018800F50CF40CFF3E031DC32874087504031D09
:10019800CE28CF28AF28831203132108F5002008A2
:1001A800F4000800831203132308F5002208F40062
:1001B8007D30F6000030F7000A128A11AB200A12CF
:1001C8008A11740883120313A6007508A70027086C
:1001D800A600A7012608A8002708A900AA01AB01C4
:1001E8002B08A5002A08A4002908A3002808A200B3
:1001F8000800831603139F171F129F1283120313FD
:100208001F083F3940389F001F08C33930389F0006
:100218001F141030F400F40B0F290000831203138D
:100228009F1408008316031788011030890083166D
:10023800031306148611861286138516871507166A
:1002480087128801831203138501860187018801BB
:1002580008008316031394131413831203139416BC
:1002680014121408F03904389400831603138C15FB
:10027800831203138C11080083160313141C4529D9
:100288004629402983120313130808008B170B17FC
:10029800831603130C17831203130C130800831619
:0C02A80003130F178F160F120F1408001D
:04400E00D420FF3F7C
:00000001FF
