:060000000A128A110C280F
:10000800FE00030EF2000A08F3000A128A115428AF
:100018000A128A110F28F701F801F9018312031354
:10002800A401A50183010A128A111A280A128A1149
:10003800F2200A128A110A128A11D5200A128A118C
:100048000A128A11F9200A128A110A128A11C22088
:100058000A128A110A128A118E200A128A11831230
:1000680003139F183828392841281030F600F60B5A
:100078003B280000831203139F147808F5007708C3
:10008800F4000A128A11AD200A128A117508831227
:100098000313A5007408A40033280A128A110C2837
:1000A800831203130C1F59285A2876281E08F000BB
:1000B800F1017008F7007108F8007708F100F00105
:1000C8007008F7007108F8007708831603131E04F8
:1000D800F0007808F1007008F7007108F800831242
:1000E80003130C138C1D79287A2887280A128A1181
:1000F800E8200A128A11F0007008F900831203132D
:10010800240893008C1173088A00720E8300FE0E77
:100118007E0E0900831603130C17831203130C13A6
:10012800831603139F171F129F12831203131F08AE
:100138003F3940389F001F08C33920389F001F14DB
:100148001030F400F40BA6280000831203139F1448
:100158000800750883120313A1007408A000031097
:10016800A10CA00C0310A10CA00C2008A2002108CF
:10017800A3002308F5002208F400080083160313DF
:100188009413141383120313941614121408F039D9
:1001980004389400831603138C15831203138C11EF
:1001A800080083160317880101308900831603139A
:1001B80085160615871507168712880183120313FB
:1001C800850186018801080083160313141CED2895
:1001D800EE28E82883120313130808008316031374
:1001E8000F178F160F120F1408008B170B17080024
:04400E00D420FF3F7C
:00000001FF
